:0400000013EF00F00A
:0600080055825BED09F0DA
:100018005580E0CF0EF00EC0E0FF5590100048EF7D
:020028000BF0DB
:1010000000020300000005010002030100020500C8
:101010000000000E096E01500210D8B412EF08F063
:1010200014EF08F022EF08F020EE01F00150D9266D
:101030000250DA22070EDF6420EF08F022EF08F0FA
:10104000A4EF08F0010E096EB9EF08F020EE01F0F0
:101050000150D9260250DA22DF50046E010E056ECF
:10106000042A35EF08F0D8900536042E33EF08F047
:1010700001C0D9FF02C0DAFFDF50020DF3503C0F70
:10108000D96EDA6ADECF06F0DDCF07F006C0D9FFF1
:1010900007C0DAFF0550DF12B9EF08F020EE01F0CB
:1010A0000150D9260250DA22DF50046E010E056E7F
:1010B000042A5DEF08F0D8900536042E5BEF08F0A7
:1010C0000550FF0A066E01C0D9FF02C0DAFFDF50EB
:1010D000020DF3503C0FD96EDA6ADECF07F0DDCF98
:1010E00008F007C0D9FF08C0DAFF0650DF16B9EFD5
:1010F00008F020EE01F00150D9260250DA22DF502C
:10110000046E010E056E042A88EF08F0D8900536AB
:10111000042E86EF08F00550FF0A066E01C0D9FFC5
:1011200002C0DAFFDF50020DF3503C0FD96EDA6ACD
:10113000DECF07F0DDCF08F007C0D9FF08C0DAFF27
:101140000650DF1622EF08F00350046E056A0550C2
:10115000000AD8B4AEEF08F079EF08F00450000AA6
:10116000D8B44EEF08F0010AD8B426EF08F079EFB2
:1011700008F009501200000E166E0F50D8B4C3EFDD
:1011800008F0C5EF08F0D7EF08F00FC010F0010E1F
:10119000102610C0F6FF100EF76EF86A070E080052
:1011A000F564D5EF08F0D7EF08F03AEF09F0010E3B
:1011B000166E59EF09F00FC010F0010E102610C086
:1011C000F6FF100EF76EF86A0800F5CF11F0010E69
:1011D000126E112AEEEF08F0D8901236112EECEFB5
:1011E00008F00FC0F6FF100EF76EF86A0800F55011
:1011F000020DF350320FD96EDA6ADECF13F0DDCF75
:1012000014F013C0D9FF14C0DAFF1250DF1259EFE7
:1012100009F00FC010F0010E102610C0F6FF100EDE
:10122000F76EF86A0800F5CF11F0010E126E112A60
:101230001CEF09F0D8901236112E1AEF09F0125057
:10124000FF0A136E0FC0F6FF100EF76EF86A080063
:10125000F550020DF350320FD96EDA6ADECF14F07A
:10126000DDCF15F014C0D9FF15C0DAFF1350DF161B
:1012700059EF09F00FC010F0020E102610C0F6FF53
:10128000100EF76EF86A0800F550116E126A1250CF
:10129000000AD8B44EEF09F0D7EF08F01150000A59
:1012A000D8B409EF09F0010AD8B4DBEF08F0D7EFA2
:1012B00008F0165012000600D9CF0AF0DACF0BF072
:1012C000F3CF0CF0F4CF0DF09DA669EF09F06BEFB2
:1012D00009F07DEF09F09EA670EF09F072EF09F0BA
:1012E0007DEF09F0020E5418D8A479EF09F07BEFD6
:1012F00009F07DEF09F0C7EC0AF09DA682EF09F036
:1013000084EF09F096EF09F09EA689EF09F08BEFC4
:1013100009F096EF09F05404D8A491EF09F093EF87
:1013200009F096EF09F0010E7DEC0BF09DA69BEF06
:1013300009F09DEF09F0AFEF09F09EA6A2EF09F0CA
:10134000A4EF09F0AFEF09F05450D8A4AAEF09F0C8
:10135000ACEF09F0AFEF09F0000E7DEC0BF00DC023
:10136000F4FF0CC0F3FF0BC0DAFF0AC0D9FF55929F
:101370001100000E1E6E1C50D8A4C1EF09F0C3EF7F
:1013800009F0C7EF09F0010E1E6EF5EF09F0C69ADD
:101390001C50D96EDA6A030ED926DF501D6EC65076
:1013A0001D18F00B1D18C66E1CC00FF0E9EC0AF0FA
:1013B0001CC019F02FEC0AF00009D8B4E2EF09F0D4
:1013C000E4EF09F0E6EF09F0010E1E6E1CC012F00A
:1013D00063EC0BF00009D8B4F0EF09F0F2EF09F07C
:1013E000F4EF09F0010E1E6EC68A1E501200000EA8
:1013F000216E000E226E20EE46F010EE23F0040E59
:10140000DBCFE3FFE806FCE2230E1C6EB9EC09F02B
:1014100021129590230E0F6E220E106E67EC0AF0CB
:10142000410E2218D8A417EF0AF019EF0AF00AEFBC
:101430000AF08C80230E0F6E420E106E9BEC0AF0A9
:10144000060E206E130E1F6EAE0EE82EFED71F2E58
:10145000FCD7202EFAD70AEF0AF013EF00F0000EA7
:101460001B6E1950D96EDA6A030ED926040EDE18E7
:10147000D8B43DEF0AF03FEF0AF04DEF0AF01950F3
:10148000D96EDA6A030ED926050EDE18D8A44BEF02
:101490000AF04DEF0AF053EF0AF019C017F096EC7E
:1014A0000BF057EF0AF019C017F0AEEC0BF00D0E71
:1014B0000F6EBBEC08F00009D8B461EF0AF063EFDF
:1014C0000AF065EF0AF0010E1B6E1B5012000F5060
:1014D000D8B46DEF0AF06FEF0AF077EF0AF0105012
:1014E000D8A475EF0AF077EF0AF079EF0AF09AEFD7
:1014F0000AF00F50D96EDA6A030ED926040EDE18F0
:10150000D8B485EF0AF087EF0AF095EF0AF00F5094
:10151000D96EDA6A030ED926050EDE18D8A493EF29
:101520000AF095EF0AF09AEF0AF0000E546E10C020
:101530004DF04E6A12000F50D8A4A1EF0AF0A3EFAD
:101540000AF0A5EF0AF0C6EF0AF00F50D96EDA6A7A
:10155000030ED926040EDE18D8B4B1EF0AF0B3EFAB
:101560000AF0C1EF0AF00F50D96EDA6A030ED926DD
:10157000050EDE18D8A4BFEF0AF0C1EF0AF0C6EFDF
:101580000AF0010E546E100E4B6E4C6A12004F5052
:101590005010D8B4CEEF0AF0D0EF0AF0D8EF0AF02E
:1015A0004FC001F050C002F0010E036E09EC08F0CC
:1015B0004D504E10D8B4DFEF0AF0E1EF0AF0E7EF3C
:1015C0000AF04DC0D9FF4EC0DAFFC9CFDFFF9E96AB
:1015D00012000F50D96EDA6A040ED926DFA4F3EF99
:1015E0000AF0F5EF0AF0F8EF0AF0C78CF9EF0AF00D
:1015F000C79C0F50D96EDA6A040ED926DFA003EF1C
:101600000BF005EF0BF008EF0BF0C68809EF0BF0BD
:10161000C6981200116E13EF0BF09F8628EF0BF0A7
:101620009F9628EF0BF011500F6E106A1050000AB1
:10163000D8B41DEF0BF028EF0BF00F50000AD8B410
:1016400010EF0BF0010AD8B40DEF0BF028EF0BF000
:101650001200C9CF53F04B504C10D8B432EF0BF0FE
:1016600034EF0BF043EF0BF04BC0D9FF4CC0DAFF67
:10167000DF50C96EC6AE3FEF0BF041EF0BF043EF0A
:101680000BF0FEEC0BF0000E4B6E000E4C6E1200D9
:10169000D80EF66E170EF76E000EF86E00EE28F0FC
:1016A00010EE23F00900F5CFEEFFE550E150FAE12E
:1016B00000EE4BF00A0EEE6AE806FDE155905592F9
:1016C0000001F7EF09F09D96D08EF28CF28E125049
:1016D000D96EDA6A020ED926DF500AEC0BF09E961C
:1016E0001250D96EDA6ADECF0FF0DDCF10F0C3EC06
:1016F0000BF0136E9D8613501200016E0104D8A4E6
:1017000084EF0BF086EF0BF08AEF0BF029EC0BF077
:1017100094EF0BF00150D8A490EF0BF092EF0BF088
:1017200094EF0BF0D8EC0BF09E961200C79E090EBA
:101730000F6EBBEC08F01750D96EDA6A030ED9268B
:10174000040EDE18D8A4A7EF0BF0A9EF0BF0ADEF55
:101750000BF0050E0F6EBBEC08F012001750D96E9F
:10176000DA6A040ED926DFB2B8EF0BF0BAEF0BF04D
:10177000BDEF0BF0C79EBEEF0BF0C78E010E0F6ED4
:10178000BBEC08F01200000E116E0F501010D8B410
:10179000CCEF0BF0CEEF0BF0D4EF0BF00FC051F00D
:1017A00010C052F0D6EF0BF0010E116E1150120066
:1017B0004D504E10D8B4DFEF0BF0E1EF0BF0E7EF38
:1017C0000BF04DC0D9FF4EC0DAFFC9CFDFFF000ECE
:1017D0004D6E000E4E6E1200800F810F820F830F30
:1017E000840F920F930F940F950F960F890F8A0F06
:0B17F0008B0F8C0F8D0F000001040018
:0417FC00C69E120073
:020000040030CA
:0E000000FF021F1EFF8185FF0FC00FE00F40A3
:00000001FF
