:0400000013EF00F00A
:060008005E824FED0AF0DC
:100018005E80E0CF0DF00DC0E0FF5E901000D7EFDE
:020028000CF0DA
:1010000000020300000005010002030100020500C8
:101010000000000E176E0E500F10D8B412EF08F03B
:1010200014EF08F034EF08F0010E0E24106E000EDD
:101030000F20116E10C0F6FF11C0F7FF000EF86E02
:101040000F0EF76403D00800F55005D0F6CFE9FF86
:10105000F7CFEAFFEF50126E070E126432EF08F07E
:1010600034EF08F0C3EF08F0010E176EEEEF08F052
:10107000010E0E24106E000E0F20116E10C0F6FF30
:1010800011C0F7FF000EF86E0F0EF76403D00800D2
:10109000F55005D0F6CFE9FFF7CFEAFFEF50126E1B
:1010A000010E136E122A57EF08F0D8901336122E45
:1010B00055EF08F00EC0F6FF0FC0F7FF000EF86EF8
:1010C0000F0EF76403D00800F55005D0F6CFE9FF06
:1010D000F7CFEAFFEF50020DF350370FD96EDA6AFF
:1010E000DECF14F0DDCF15F014C0D9FF15C0DAFF44
:1010F0001350DF12EEEF08F0010E0E24106E000EFA
:101100000F20116E10C0F6FF11C0F7FF000EF86E31
:101110000F0EF76403D00800F55005D0F6CFE9FFB5
:10112000F7CFEAFFEF50126E010E136E122A9BEFFB
:1011300008F0D8901336122E99EF08F01350FF0ADA
:10114000146E0EC0F6FF0FC0F7FF000EF86E0F0E04
:10115000F76403D00800F55005D0F6CFE9FFF7CFCC
:10116000EAFFEF50020DF350370FD96EDA6ADECF87
:1011700015F0DDCF16F015C0D9FF16C0DAFF1450F8
:10118000DF16EEEF08F0020E0E24106E000E0F2098
:10119000116E10C0F6FF11C0F7FF000EF86E0F0EB3
:1011A000F76403D00800F55005D0F6CFE9FFF7CF7C
:1011B000EAFFEF50126E136A1350000AD8B4E3EF3F
:1011C00008F034EF08F01250000AD8B47CEF08F0B1
:1011D000010AD8B438EF08F034EF08F017501200C5
:1011E000000E166E0E500F10D8B4F9EF08F0FBEF9A
:1011F00008F009EF09F020EE01F00E50D9260F504B
:10120000DA22070EDF6407EF09F009EF09F08BEF30
:1012100009F0010E166EA0EF09F020EE01F00E505D
:10122000D9260F50DA22DF50116E010E126E112AEC
:101230001CEF09F0D8901236112E1AEF09F00EC0EB
:10124000D9FF0FC0DAFFDF50020DF350410FD96E06
:10125000DA6ADECF13F0DDCF14F013C0D9FF14C06B
:10126000DAFF1250DF12A0EF09F020EE01F00E506D
:10127000D9260F50DA22DF50116E010E126E112A9C
:1012800044EF09F0D8901236112E42EF09F01250B7
:10129000FF0A136E0EC0D9FF0FC0DAFFDF50020D38
:1012A000F350410FD96EDA6ADECF14F0DDCF15F0BE
:1012B00014C0D9FF15C0DAFF1350DF16A0EF09F0F4
:1012C00020EE01F00E50D9260F50DA22DF50116EB9
:1012D000010E126E112A6FEF09F0D8901236112EFE
:1012E0006DEF09F01250FF0A136E0EC0D9FF0FC048
:1012F000DAFFDF50020DF350410FD96EDA6ADECF0C
:1013000014F0DDCF15F014C0D9FF15C0DAFF13506B
:10131000DF1609EF09F01050116E126A1250000A20
:10132000D8B495EF09F060EF09F01150000AD8B475
:1013300035EF09F0010AD8B40DEF09F060EF09F0BC
:101340001650120001500210D8B4A9EF09F0ABEF0B
:1013500009F0B9EF09F020EE01F00150D926025052
:10136000DA22070EDF64B7EF09F0B9EF09F039EFC1
:101370000AF04EEF0AF020EE01F00150D92602509B
:10138000DA22DF50046E010E056E042ACAEF09F05E
:10139000D8900536042EC8EF09F001C0D9FF02C06D
:1013A000DAFFDF50020DF350410FD96EDA6ADECF5B
:1013B00006F0DDCF07F006C0D9FF07C0DAFF055001
:1013C000DF124EEF0AF020EE01F00150D926025054
:1013D000DA22DF50046E010E056E042AF2EF09F0E6
:1013E000D8900536042EF0EF09F00550FF0A066E7E
:1013F00001C0D9FF02C0DAFFDF50020DF350410FE8
:10140000D96EDA6ADECF07F0DDCF08F007C0D9FF6A
:1014100008C0DAFF0650DF164EEF0AF020EE01F0AA
:101420000150D9260250DA22DF50046E010E056EFB
:10143000042A1DEF0AF0D8900536042E1BEF0AF09F
:101440000550FF0A066E01C0D9FF02C0DAFFDF5067
:10145000020DF350410FD96EDA6ADECF07F0DDCF0F
:1014600008F007C0D9FF08C0DAFF0650DF16B9EF51
:1014700009F00350046E056A0550000AD8B443EF22
:101480000AF00EEF0AF00450000AD8B4E3EF09F0B6
:10149000010AD8B4BBEF09F00EEF0AF01200060003
:1014A000D9CF09F0DACF0AF0F3CF0BF0F4CF0CF07C
:1014B0009DA65DEF0AF05FEF0AF071EF0AF09EA6BD
:1014C00064EF0AF066EF0AF071EF0AF0020E5D18A1
:1014D000D8A46DEF0AF06FEF0AF071EF0AF036EC66
:1014E0000CF09DA676EF0AF078EF0AF08AEF0AF08A
:1014F0009EA67DEF0AF07FEF0AF08AEF0AF05D0406
:10150000D8A485EF0AF087EF0AF08AEF0AF0010EFF
:1015100025EC0DF09DA68FEF0AF091EF0AF0A3EFF6
:101520000AF09EA696EF0AF098EF0AF0A3EF0AF0F1
:101530005D04D8A49EEF0AF0A0EF0AF0A3EF0AF032
:10154000000E25EC0DF00CC0F4FF0BC0F3FF0AC039
:10155000DAFF09C0D9FF5E9211001750D8B4B3EF7B
:101560000AF0B5EF0AF0D9EF0AF01950D8B4BBEF82
:101570000AF0BDEF0AF0D9EF0AF01750D96EDA6A17
:10158000030ED926040EDE18D8B4C9EF0AF0CBEF4B
:101590000AF0D9EF0AF01750D96EDA6A030ED9268D
:1015A000050EDE18D8A4D7EF0AF0D9EF0AF0DBEF6A
:1015B0000AF0FDEF0AF018C058F0596A5850591057
:1015C000D8B4E5EF0AF0E7EF0AF0EFEF0AF058C001
:1015D0000EF059C00FF0000E106EF0EC08F0020E85
:1015E0005D6E19C056F0576AC6AEF9EF0AF0FBEF10
:1015F0000AF0FDEF0AF07BEC0DF01200000E226EF7
:10160000000E236E50C029F051C02AF052C02BF0BA
:1016100053C02CF020EE4BF010EE24F0040EDBCF84
:10162000E3FFE806FCE2240E1D6E8EEC0BF02212A6
:10163000290E186E08EC0CF09590240E176E290EEA
:10164000186E410E196E46EC0BF0060E216E130E4D
:10165000206EAE0EE82EFED7202EFCD7212EFAD714
:10166000240E176E290E186E230E196EADEC0AF0BB
:10167000420E2318D8A43FEF0BF041EF0BF01DEF03
:101680000BF08C801DEF0BF013EF00F01750D8B467
:101690004CEF0BF04EEF0BF06AEF0BF01750D96EDA
:1016A000DA6A030ED926040EDE18D8B45AEF0BF00E
:1016B0005CEF0BF06AEF0BF01750D96EDA6A030E8D
:1016C000D926050EDE18D8A468EF0BF06AEF0BF0F0
:1016D0006CEF0BF08DEF0BF018C058F0596A5850B2
:1016E0005910D8B476EF0BF078EF0BF080EF0BF0D9
:1016F00058C00EF059C00FF0000E106EF0EC08F05C
:10170000020E5D6E19C0C9FFC6AE89EF0BF08BEFFC
:101710000BF08DEF0BF07BEC0DF01200000E1F6E46
:101720001D50D8A496EF0BF098EF0BF09CEF0BF048
:10173000010E1F6ECAEF0BF0C69A1D50D96EDA6A01
:10174000030ED926DF501E6EC6501E18F00B1E1851
:10175000C66E1DC00EF058EC0CF01DC01AF0CCEC9B
:101760000BF00009D8B4B7EF0BF0B9EF0BF0BBEFFB
:101770000BF0010E1F6E1DC011F0F2EC0CF0000911
:10178000D8B4C5EF0BF0C7EF0BF0C9EF0BF0010EAB
:101790001F6EC68A1F501200000E1C6E1A50D96EA2
:1017A000DA6A030ED926040EDE18D8B4DAEF0BF08D
:1017B000DCEF0BF0EAEF0BF01A50D96EDA6A030E89
:1017C000D926050EDE18D8A4E8EF0BF0EAEF0BF0EF
:1017D000F0EF0BF01AC018F079EC0CF0F4EF0BF00E
:1017E0001AC018F00CEC0DF00D0E0E6E0E50D8A4B1
:1017F000100E0F6E09EC08F00009D8B402EF0CF0DF
:1018000004EF0CF006EF0CF0010E1C6E1C501200E1
:101810001850D8B40EEF0CF010EF0CF01DEF0CF0D8
:101820001850D96EDA6A010ED926070EDF641BEF55
:101830000CF01DEF0CF021EF0CF0010E1A6E34EFDE
:101840000CF018C00EF00F6A09EC08F01A6E18C000
:101850000EF00F6A1850D96EDA6A030ED926DF50DF
:10186000106EF0EC08F01A121A501200585059106D
:10187000D8B43DEF0CF03FEF0CF047EF0CF058C040
:1018800001F059C002F0010E036EA2EC09F05650AF
:101890005710D8B44EEF0CF050EF0CF056EF0CF0A0
:1018A00056C0D9FF57C0DAFFC9CFDFFF9E9612009E
:1018B0000E50D96EDA6A040ED926DFA462EF0CF05E
:1018C00064EF0CF067EF0CF0C78C68EF0CF0C79C6E
:1018D0000E50D96EDA6A040ED926DFA072EF0CF032
:1018E00074EF0CF077EF0CF0C68878EF0CF0C69828
:1018F0001200C79E090E0E6E0E50D8A4100E0F6E69
:1019000009EC08F01850D96EDA6A030ED926040ED5
:10191000DE18D8A48EEF0CF090EF0CF098EF0CF0DE
:10192000050E0E6E0E50D8A4100E0F6E09EC08F0C6
:101930001200106EA2EF0CF09F86B7EF0CF09F968E
:10194000B7EF0CF010500E6E0F6A0F50000AD8B4AB
:10195000ACEF0CF0B7EF0CF00E50000AD8B49FEFCC
:101960000CF0010AD8B49CEF0CF0B7EF0CF01200A9
:10197000C9CF5CF054505510D8B4C1EF0CF0C3EF90
:101980000CF0D2EF0CF054C0D9FF55C0DAFFDF5095
:10199000C96EC6AECEEF0CF0D0EF0CF0D2EF0CF06B
:1019A0007DEC0DF0000E546E000E556E1200CE0E42
:1019B000F66E1A0EF76E000EF86E00EE2DF010EEB9
:1019C00027F00900F5CFEEFFE550E150FAE100EE17
:1019D00054F00A0EEE6AE806FDE15E905E920001A8
:1019E000FEEF0AF09D96D08EF28CF28E1150D96ED9
:1019F000DA6A020ED926DF5099EC0CF09E9611504F
:101A0000D96EDA6ADECF0EF0DDCF0FF03EEC0DF0CE
:101A1000126E9D86125012001850D96EDA6A040EAA
:101A2000D926DFB216EF0DF018EF0DF01BEF0DF019
:101A3000C79E1CEF0DF0C78E010E0E6E0E50D8A47F
:101A4000100E0F6E09EC08F01200016E0104D8A40C
:101A50002CEF0DF02EEF0DF032EF0DF0B8EC0CF096
:101A60003CEF0DF00150D8A438EF0DF03AEF0DF037
:101A70003CEF0DF053EC0DF09E961200000E106E30
:101A80000E500F10D8B447EF0DF049EF0DF04FEFA7
:101A90000DF00EC05AF00FC05BF051EF0DF0010ECB
:101AA000106E1050120056505710D8B45AEF0DF067
:101AB0005CEF0DF062EF0DF056C0D9FF57C0DAFFB2
:101AC000C9CFDFFF000E566E000E576E1200800F5A
:101AD000810F820F830F840F920F930F940F950F36
:101AE000960F890F8A0F8B0F8C0F8D0F000001004E
:051AF0000000050001EB
:081AF600C69E1200C69E1200FC
:020000040030CA
:0E000000FF021F1EFF8185FF0FC00FE00F40A3
:00000001FF
